:100000008FC100000C941F120C94F4110C94C911B0
:100010000C949E110C9473110C9448110C941D11A6
:100020000C94F210AEC10000ACC10000AAC10000E7
:10003000A8C10000A6C10000A4C10000A2C1000028
:10004000A0C100009EC100009CC100009AC1000038
:1000500098C1000096C1000094C100000C94A81043
:1000600090C100000C9472100C9448108AC10000DA
:1000700088C1000086C1000084C1000082C1000068
:1000800080C100007EC100007CC100007AC1000078
:1000900078C1000076C1000074C1000072C1000088
:1000A00070C100006EC100006CC100006AC1000098
:1000B00068C1000066C1000064C1000062C10000A8
:1000C00060C100005EC100005CC100005AC10000B8
:1000D00058C1000056C1000054C1000052C10000C8
:1000E00050C10000504F5354202F746573742F205B
:1000F000485454502F312E300D0A486F73743A20F3
:1001000024460D0A436F6E6E656374696F6E3A2004
:10011000636C6F73650D0A436F6E74656E742D5456
:100120007970653A206170706C69636174696F6E93
:100130002F782D7777772D666F726D2D75726C65C0
:100140006E636F6465640D0A436F6E74656E742D23
:100150004C656E6774683A2024440D0A0D0A2448E1
:1001600000638253630001080006040001000021BF
:1001700000240027002A002D003000330001010078
:1001800000040107010A0100002200250028002BBD
:10019000002E003100340002010000050108010BAF
:1001A0000105050505070508080808020202020AFC
:1001B0000A0808040404040101010101010101030A
:1001C00003030303030303040707070C0C0C0C0CC5
:1001D0000C0C0C0202020206060606060606060BB8
:1001E0000B0B0B0B0B0B0B0102102020080810202F
:1001F00040102040800201020108040201010204B3
:100200000810204080804020100804020180040271
:1002100001804020100804020108040201010204C8
:100220000810204080010204081020408000000ACD
:100230000B02090C0D0E080703040100000000006A
:1002400000000000000000000000000000000000AE
:10025000000000000000000000121110000000006B
:10026000000000000000000000000000000000008E
:100270000000004500008200004000203132332E93
:100280003230302E31362E323600504F5354202F1C
:10029000746573742F20485454502F312E300D0A3A
:1002A000486F73743A2024460D0A436F6E6E65637F
:1002B00074696F6E3A20636C6F73650D0A436F6EDD
:1002C00074656E742D547970653A206170706C6934
:1002D000636174696F6E2F782D7777772D666F72F3
:1002E0006D2D75726C656E636F6465640D0A436F86
:1002F0006E74656E742D4C656E6774683A20244484
:100300000D0A0D0A244800203E3E3E5245504C59ED
:100310002072656369657665642E2E2E2E00A51207
:1003200011241FBECFEFD1E2DEBFCDBF00E00CBF76
:1003300027E0A0EFB2E001C01D92A437B207E1F7B9
:1003400012E0A0E0B2E0E8EBFAE300E00BBF02C08D
:1003500007900D92A03FB107D9F711E0C0E9D1E0B5
:1003600000E006C021970109802FFE010E942B1B8F
:10037000CF38D10780E00807A9F70E9480130C94BA
:100380005A1D3ECECF92DF92EF92FF9287E390E02C
:10039000C12CD12C7601C3940097C1F0FC0123E05D
:1003A000F595E7952A95E1F7E556F94F282F27703F
:1003B000B701A60104C0440F551F661F771F2A9579
:1003C000D2F72081242B20830197E6CFFF90EF9076
:1003D000DF90CF900895CF93DF93EC01FB018A303B
:1003E000910540F06AE070E00E94F51ACB01BF0170
:1003F000F2DFFC01CE016AE070E00E94F51A805D38
:1004000080831182CF010196DF91CF910895CF9320
:10041000DF93209115062223C1F0FC0120812223C5
:10042000A1F0C5E1D6E0A1E1B6E09C012C5F3F4F11
:10043000899141919D918427892339F4E217F3072B
:10044000B9F781E0DF91CF91089580E0FBCFDB0128
:1004500014964D915C9115976D917C91DC01ED9115
:10046000FC910280F381E02D1994AF92BF92CF925C
:10047000DF92EF92FF920F931F93CF93DF936C0164
:100480007B018B01040F151FEB015E01AE18BF0845
:10049000C017D10759F06991D601ED91FC910190F7
:1004A000F081E02DC6011995892B79F7C501DF91FF
:1004B000CF911F910F91FF90EF90DF90CF90BF9061
:1004C000AF900895FC01538D448D252F30E0842F8B
:1004D00090E0821B930B541710F0CF96089501976C
:1004E0000895FC01918D828D981761F0A28DAE0F59
:1004F000BF2FB11D5D968C91928D9F5F9F73928FE0
:1005000090E008958FEF9FEF0895FC01918D828D0B
:10051000981731F0828DE80FF11D858D90E00895D8
:100520008FEF9FEF0895FC01918D228D892F90E030
:10053000805C9F4F821B91098F739927089582EAEF
:1005400096E0F1DF21E0892B09F420E0822F089565
:10055000FC01A48DA80FB92FB11DA35ABF4F2C9138
:10056000848D90E001968F739927848FA689B7892F
:100570002C93A089B1898C91837080648C93938D26
:10058000848D981306C00288F389E02D80818F7DC9
:1005900080830895EF92FF920F931F93CF93DF9381
:1005A000EC0181E0888F9B8D8C8D98131AC0E889AF
:1005B000F989808185FF15C09FB7F894EE89FF897E
:1005C0006083E889F98980818370806480839FBF1C
:1005D00081E090E0DF91CF911F910F91FF90EF901C
:1005E0000895F62E0B8D10E00F5F1F4F0F7311272C
:1005F000E02E8C8D8E110BC00FB607FCFACFE88968
:10060000F989808185FFF5CFCE01A2DFF2CFEB8D96
:10061000EC0FFD2FF11DE35AFF4FF0829FB7F894C6
:100620000B8FEA89FB8980818062D0CFCF93DF93E3
:10063000EC01888D8823B1F0AA89BB89E889F98902
:100640008C9185FD03C0808186FD0CC00FB607FC30
:10065000F7CF8C9185FFF2CF808185FFEDCFCE0162
:1006600077DFEACFDF91CF91089580E090E0892B8A
:1006700021F065DF81110E94000080E090E0892B6D
:1006800049F080E090E0892B29F00E940000811160
:100690000E94000080E090E0892B49F080E090E02B
:1006A000892B29F00E94000081110E94000080E047
:1006B00090E0892B49F080E090E0892B29F00E949E
:1006C000000081110C9400000895282F30E0F901FA
:1006D000E35DFD4F9491F901E951FE4F44912F558F
:1006E0003E4FF9012491222309F435C0992311F1D9
:1006F00091509231F8F4E92FF0E08827ED57FC4F44
:100700008F4F0C942B1BB403B8039503AC03B003B9
:100710009A03BB03C103C503CB03CF03D303D903A0
:10072000DD039A03E103E703EB03809180008F77F9
:1007300080938000E22FF0E0EE0FFF1FE957FE4F9D
:10074000A591B4918FB7F894EC91611148C0409590
:100750004E234C938FBF0895809180008F7DE8CF0A
:1007600080918000877FE4CF84B58F7784BDE2CF0E
:1007700084B58F7DFBCF8091B0008F778093B000E0
:10078000D9CF8091B0008F7DF9CF809190008F7785
:1007900080939000CFCF809190008F7DF9CF809192
:1007A0009000877FF5CF8091A0008F778093A00085
:1007B000C1CF8091A0008F7DF9CF8091A000877F6D
:1007C000F5CF809120018F7780932001B3CF809166
:1007D00020018F7DF9CF80912001877FF5CF4E2BAF
:1007E000B8CFCF93DF9390E0FC01E951FE4F249105
:1007F0008F559E4FFC0184918823D1F090E0880FA3
:10080000991FFC01E359FE4FA591B491FC01E957F2
:10081000FE4FC591D49161110EC09FB7F8948C9191
:10082000E22FE0958E238C932881E223E8839FBFFB
:10083000DF91CF9108958FB7F894EC91E22BEC9370
:100840008FBFF6CF3FB7F8948091100390911103BA
:10085000A0911203B091130326B5A89B05C02F3FAA
:1008600019F00196A11DB11D3FBFBA2FA92F982FD6
:100870008827BC01CD01620F711D811D911D42E0D1
:10088000660F771F881F991F4A95D1F708958F9299
:100890009F92AF92BF92CF92DF92EF92FF924B0165
:1008A0005C01D0DF6B017C01CDDF6C197D098E0905
:1008B0009F09683E734081059105B0F321E0821ADB
:1008C0009108A108B10888EEC80E83E0D81EE11C8B
:1008D000F11C81149104A104B10431F7FF90EF9051
:1008E000DF90CF90BF90AF909F908F9008952FB7DB
:1008F000F89460910C0370910D0380910E03909118
:100900000F032FBF08950895611108C08093280236
:100910004E5C5C4F50930B0640930A0681E00895AD
:1009200084E894E0909325038093240383EC9DE076
:1009300090932303809322031092FB0580E580931C
:10094000FC0581E08093FD058091FA058F5F87703B
:100950008093FA050895CF93DF93E5E1F6E0C1E1D6
:10096000D6E0AEE1B3E0919189918095892B8D938A
:1009700086E0E931F807B9F7DF91CF9108958091CA
:100980004203909143039827892798274497209101
:10099000600330E044E0359527954A95E1F7220F52
:1009A000331F220F331F821B930B97FF02C090E06F
:1009B00080E00895209156033091540330935603FC
:1009C00020935403209157033091550330935703DC
:1009D00020935503E2E3F3E021A5820F911D25A5A5
:1009E00085A7662381F021A7892F9927319723E0D6
:1009F000EE32F20789F7109264031092650380E5E6
:100A000080936003089511A6EFCF0F931F93CF93A8
:100A1000DF9370E06E5C7C4F8A01075F1F4F2130CF
:100A200029F0223031F48A010250110930E020E02F
:100A300003C000E010E09801EB01FA01E230F1059B
:100A400058F0A991B991BA27AB27BA270A0F1B1FF3
:100A5000211D311D3297F2CFFA01EE7F6E0F7F1FFD
:100A60004E175F0769F0FB01408150E070E060E0E5
:100A7000762F652F542F4427040F151F261F371F6D
:100A8000A90166277727411551056105710519F000
:100A900022273327F1CF00951095E82FF0E0EE5C88
:100AA000FC4F10830183DF91CF911F910F91089527
:100AB000E2E3F3E0108E118E80E4848B158A868B3E
:100AC00020E044E150E06EE088E19FCFEBE9F6E002
:100AD00080E0419128E030E090E8542F592309F05C
:100AE0008F5F969521503109C1F796E0E23AF907F8
:100AF00081F70895CF93DF93EBE9F6E030E020E053
:100B0000822F9191992361F170E060E0492F50E0CC
:100B1000A62FEA01062E02C0D595C7950A94E2F7E2
:100B2000C0FF19C02556394F41E050E060E070E049
:100B30000A2E04C0440F551F661F771F0A94D2F770
:100B400040954923F9014083880F880F880F8A0F49
:100B5000DF91CF9108956F5F7F4F68307105C1F6C7
:100B60002F5F3F4F2730310559F680E0F1CF8EBD22
:100B70000DB407FEFDCF089561E080911403A5DD5B
:100B800078940895F89460E0809114039ECD0F93BB
:100B90001F93CF93DF938C01EB01F4DF0115110557
:100BA00099F08AE7E4DFFE0181918EBDC00FD11F6D
:100BB000EC17FD0731F081910DB407FEFDCF8EBD1E
:100BC000F7CF0DB407FEFDCFDF91CF911F910F91AD
:100BD000D3CF0F931F93CF93DF93EC018B01D2DF21
:100BE0002097B1F08AE3C3DF1EBCF801CE01019764
:100BF00039F00DB407FEFDCF2EB51EBC2193F7CF03
:100C00002197C00FD11F0DB407FEFDCF8EB588838D
:100C1000DF91CF911F910F91AFCF1F93CF93DF93B0
:100C2000182FC62FD42FAEDF8C2F8F71812B9FDF13
:100C30008D2F9DDFDF91CF911F919ECFCF93C82F36
:100C4000C076809107038C1789F043E06FE180EA5A
:100C5000E4DFC09307034C2F50E085E0559547959E
:100C60008A95E1F76FE180E8CF91D7CFCF910895D2
:100C7000CF93DF93C82FD62FE1DF4D2F6C2F80E469
:100C8000DF91CF91CACFCF93DF93C82FD72FF0DF5B
:100C90006D2F81E08C0FDF91CF91EACFFF920F9300
:100CA0001F93CF93DF93082F10E091E4899FF00109
:100CB0001124E75AF94F2081261709F44AC0C62F9C
:100CC000D82F811139C080E4289F90011124B901E7
:100CD0007E5E213C3D4038F482E0D5DF69E176E07C
:100CE00080E490E054DF80919A068C1303C08FEF6C
:100CF00080939A0681E4F82EF09EF001F19EF00DAB
:100D00001124E75AF94FC08380E4C89F9001112451
:100D1000B9017E5E213C3D40E0F480E0B4DFDF9D20
:100D2000B0011124675E794F80E490E0DF91CF91AC
:100D30001F910F91FF904DCF809159068613DACF06
:100D400081E4E9E1F6E0AAE5B6E001900D928A952A
:100D5000E1F7DF91CF911F910F91FF900895CF930D
:100D6000DF931F92CDB7DEB7198220E4829FC001C6
:100D700011249E5E680F792F711DCB019251811550
:100D80009E4040F480E07FDFBE016F5F7F4F81E0D7
:100D900090E01FDF89810F90DF91CF910895CF936D
:100DA000DF93FC01C481FFE3CF9FE0011124FC012C
:100DB000868190915906891309C0809157068C0F3E
:100DC0009D2F911D0397DF91CF91089590919A06E1
:100DD000891303C080919806F2CF6EE3C0DFEFCF96
:100DE000CF93C82F2BDFCEDE8C2F8F71C0DE80E03B
:100DF000BEDEC7FF02C080E0BADECEB5BDDE8C2FFE
:100E0000CF91089561E184ED33DF61E082ED30DF61
:100E10008AEEE6DF80FDFCCF60E082ED29DF89ED20
:100E2000DFDF90E008950F931F93CF93DF9300D0FF
:100E300000D0CDB7DEB780910A03882371F06091AE
:100E40000803709109036115710509F04DC06FEF3A
:100E50007BE08CE018DF10920A0389E3C1DF10E029
:100E600000E08823A9F1609108037091090380E0F4
:100E70000ADFBE016F5F7F4F86E090E0AADE8981C6
:100E80009A8190930903809308038D819E818C0140
:100E90000078112787FF11C08B819C8104970091F6
:100EA000150310911603015011098017910708F4DA
:100EB0008C0162E373E0C8018CDEF801EE5CFC4F4C
:100EC000108281E080930A0340E46EE180E8A5DEB1
:100ED000C80126960FB6F894DEBF0FBECDBFDF91D6
:100EE000CF911F910F91089561507109B2CFCF93A7
:100EF000DF93EC0140E86FE180E88FDE40E86FE1CE
:100F000080EA8BDE4AE06CE180EA87DE60E07CE02C
:100F100082E0B9DEBE01745F86E0B5DE40E060E0ED
:100F20008AE77BDE62E373E0CE0131DE48E06FE109
:100F300080E873DED0E0C0E08CE152DF8A7029F4F3
:100F40002196C83E83E0D807B9F78CE149DF81FDDF
:100F500003C0C83ED34031F448E06FE180EADF913E
:100F6000CF915BCEDF91CF910895CF93DF93EB01CB
:100F7000682F84ED7DDEBE0186ED85DE8AEE30DFF2
:100F800080FDFCCFDF91CF910895CF92DF92EF9259
:100F9000FF920F931F938634910568F120915503BA
:100FA000233449F5C0906003D0906103E090620360
:100FB000F09063030091F7021091F8022091F9027A
:100FC0003091FA02C016D106E206F306A1F4ECE471
:100FD000F4E08E5C9C4F9F012E5F3F4F418150811A
:100FE000553319F45281651771F0F901E40FF11DC1
:100FF000E817F90780F380E01F910F91FF90EF90C1
:10100000DF90CF90089581E0F7CFE091F002F0916A
:10101000F1029F012F5F3F4F3093F1022093F002C6
:1010200080830895FF920F931F93CF93DF93162F22
:10103000F42E052FEADF812FE8DFCF2DD02F1150BE
:1010400018F08991E2DFFBCFDF91CF911F910F91D3
:10105000FF900895282F80914007909141074A976B
:1010600024F081E080933F0708958091400790919C
:10107000410702972CF1409142075091430760913C
:10108000440770914507440F551F661F771F409313
:10109000420750934307609344077093450780913C
:1010A000420790914307A0914407B0914507822BD6
:1010B0008093420790934307A0934407B09345075A
:1010C00008958091400790914107019690934107C0
:1010D0008093400780E0BECF809140079091410708
:1010E0000196909341078093400781E0B3CF1F930F
:1010F000CF93DF93EC01162F6E8180E0CFDDE0917E
:10110000570681E08E0FF0E0E75EF94F10838F33D2
:1011100040F48093570681E090E0DF91CF911F91DA
:101120000895E8DC809358068E83682F80E0B6DD52
:1011300010925806109257068C818F5F8C83EBCFEC
:101140000F931F93CF93DF93EC01D1DB0C811D81B3
:101150002E813F81AB01BC01401B510B620B730B15
:1011600088859985092E000CAA0BBB0B48175907D7
:101170006A077B0748F0EC85FD858A859B85DF91B2
:10118000CF911F910F911994DF91CF911F910F91E2
:101190000895CF93DF93EC0155DB688379838A83CD
:1011A0009B83A5DB6C837D838E839F83DF91CF91AF
:1011B0000895682F84E089DA84E597E0EACF0895FE
:1011C00090E080E008956091670780E067DD83E04C
:1011D000E6E6F7E0A9E1B6E001900D928A95E1F725
:1011E00090919A0680916707981303C060E081E0B0
:1011F00055CD0895DC0196E0FB0101900D929A9582
:10120000E1F70895BC0182E393E0F4DF68E173E065
:1012100088E393E0EFCFDC0194E0FB0101900D92B5
:101220009A95E1F7089588E393E0ECDF6CE473E0CE
:1012300080E593E0F0DF65E176E08CE493E0EBDFBE
:1012400037CC262F206120936103643021F0009772
:1012500011F481E090E061E0ADDB1092420388E29E
:1012600080934303E0DF84E0809362031092630382
:1012700022E04CE150E06AE182E3C7DB86E390E0E4
:1012800036CECF93DF93EB01BDDFBE0180E593E067
:10129000C2DF65E176E08CE493E0DF91CF91BBCFD4
:1012A000CF93DF93EC016F8383E0888781E0F6DCE6
:1012B000DE01149683E0EAE5F6E001900D928A954E
:1012C000E1F78F81DF91CF910895CF9313DCC82F81
:1012D000682F80E0E3DCE9E1F6E01082C283C1839D
:1012E00083E086AF17AE6C2F82E697E0CF91D8CF20
:1012F000FB0101900020E9F73197AF01461B570B26
:10130000DC01ED91FC910280F381E02D19948F9224
:101310009F92AF92BF92EF92FF920F931F93CF9342
:10132000DF93CDB7DEB7A1970FB6F894DEBF0FBE3F
:10133000CDBF7C01FA01CB0119A2223008F42AE0CA
:101340008E010F5D1F4F822E912CB12CA12CBF015D
:10135000A50194010E94091BF901CA016A3004F534
:10136000605DD8016E938D01232B242B252B79F7FB
:1013700090E080E0109719F0BD01C701B9DFA19698
:101380000FB6F894DEBF0FBECDBFDF91CF911F9196
:101390000F91FF90EF90BF90AF909F908F90089526
:1013A000695CDFCFCF93DF93BC0182EA96E0A0DFD8
:1013B000EC0163E672E082EA96E09ADF8C0F9D1FF3
:1013C000DF91CF9108950F931F93CF93DF93D62F83
:1013D000C72FBC0182EA96E08BDF0D2F1C2FC0E0E7
:1013E000F80141918F0150E070E060E02AE082EA6C
:1013F00096E08DDFC33021F06EE282EA96E0CAD833
:10140000CF5FC43069F763E672E082EA96E0DF916D
:10141000CF911F910F916CCFCF93DF93EB0144E0FD
:1014200050E0BC018EE493E00E94341D892B41F40E
:1014300068E473E0CE01DEDE81E0DF91CF910895B4
:1014400080E0FBCF0F931F93CF938C018FE392E04B
:10145000D9DEE2E3F3E088E08487C6E0C58748E0B0
:1014600050E065E671E080E493E00E946A1AE2E5EC
:10147000F3E0DF011D92CA95E9F768E173E088E4C3
:1014800093E0B8DEB80188E593E0C5DE65E176E07B
:101490008EE493E0C0DE8AE290E0CF911F910F913D
:1014A00026CDEF92FF920F931F93CF93DF938C0182
:1014B000E2E3F3E086E191E0DF019C011D9221501F
:1014C0003040E1F780911703CFE3D2E0833011F48D
:1014D000C2EFD2E0CE010E940702BE01882309F4C8
:1014E0009CC086E293E0CDDE8881807F803E91F0D3
:1014F00088819981AA81BB818F3F9F4FAF4FBF4F9A
:1015000049F044E050E0BE018EE193E00E94341DBA
:10151000892B29F46FE372E082E393E06BDE88E0CD
:1015200080933E0310923F0349E050E063E772E08E
:1015300080E493E00E946A1A1092420381E1809352
:1015400049031092560383E4809357031092540387
:1015500084E4809355031092580310925A0310921A
:101560005B036FE372E082E393E044DE81E080930B
:101570005C0380935D0386E080935E038091F702B5
:101580009091F802A091F902B091FA028093600361
:1015900090936103A0936203B0936303C091170318
:1015A000C33029F465E176E088E693E034DE68E153
:1015B00073E088E793E01EDE88E494E09093F10204
:1015C0008093F002E1E6F1E084911FDDE2E6F1E0D4
:1015D00084911BDDE3E6F1E0849117DDE4E6F1E0C0
:1015E000849113DD85E311DD81E00FDD83E0C1111E
:1015F00001C081E00ADD8DE308DD87E006DD81E0E2
:1016000004DD88E1E82E83E0F82EC7E0C15041F008
:10161000D7018D917D01F9DCF9CF8CE293E063CFA6
:1016200080910002882369F060E072E0FB01019084
:101630000020E9F7BF016150724040E052E08CE0C9
:10164000F1DC0115110549F0A80164E082E3EADC50
:1016500042EF52E064E086E3E5DC87E3D6DC83E03A
:10166000D4DC81E0D2DC83E0D0DC86E0CEDC8FEF1E
:10167000CCDCC091F002D091F102CC55D340CE0128
:101680004C96909342038093430312DACE0108965E
:101690009093580380935903AE01405F5F4F21E060
:1016A0006AE188E2B2D9CE018A96DF91CF911F918B
:1016B0000F91FF90EF901BCCCF92DF92EF92FF92B1
:1016C0000F931F93CF93DF9300D01F92CDB7DEB758
:1016D0008C01809117038230C9F098F4882309F4B3
:1016E00093C0813009F4ABC00F900F900F900F9012
:1016F000DF91CF911F910F91FF90EF90DF90CF90EE
:101700000895833009F44EC0843071F765E0C80154
:101710003CDC882309F4B7C08091F602811106C031
:1017200088E35EDB682F6E7F88E3A2DA6CE673E005
:1017300085E196E070DDECE4F4E00E5C1C4F7F0187
:1017400022E0E20EF11CD1808081863009F4EBC0EA
:1017500008F0AFC0813009F4DDC0833009F4DFC088
:10176000F701ED0DF11DE017F10748F3C0D86093C4
:10177000FF02709300038093010390930203809112
:10178000FE05882359F0109203061092020681E0AC
:10179000809304066EEF75E0CB013DDD83E080931E
:1017A0001703A2CFC0900303D0900403E090050379
:1017B000F09006032FEFC216D206E206F20609F4F5
:1017C00093CF95D80091FF0210910003209101035F
:1017D00030910203601B710B820B930B6C157D051E
:1017E0008E059F0508F480CF85E196E05ADE84E0FF
:1017F000809317037CD86093FB027093FC02809364
:10180000FD029093FE0270CF72D86093F70270933E
:10181000F8028093F9029093FA02E5E1F6E084E0A1
:10182000DF011D928A95E9F790E080E03ADE88E3D7
:10183000D7DA682F616088E31BDA81E0D9CF62E0F4
:10184000C801A3DB8823F9F06CE673E0CE010196B2
:10185000E2DCECE4F4E00E5C1C4FBF016E5F7F4FF6
:1018600081819081963341F482EF92E0D4DCCE0105
:10187000019617DE82E0BCCFFB01E80FF11DE017F7
:10188000F10758F3F4CF33D80091FB021091FC021A
:101890002091FD023091FE02601B710B820B930BB5
:1018A000613177428105910508F41ECF109217032C
:1018B0001BCF8A3331F08F3F09F458CF833309F0BF
:1018C0004FCF10920303109204031092050310925D
:1018D0000603F701C701049620E030E0A9016191F9
:1018E000542F432F322F2227260F311D411D511D0A
:1018F0008E179F07A1F72F3F8FEF3807480758072C
:10190000B1F42093030330930403409305035093F1
:10191000060326CFB70181E196E07DDC21CFB70138
:101920008EEF95E0FACFB70186EF95E0F6CFA8EEFF
:10193000B3E00E94DC1A6093030370930403809366
:101940000503909306030CCFFC0124813581FB0134
:101950004481558124173507A0F0FC0180819181D5
:10196000009779F0FB01608171816115710549F083
:10197000241B350B820F931F0E944A1D21E0892BE7
:1019800009F020E0822F08950F931F93CF93DF93E8
:10199000EC0188819981009759F02A813B812617B3
:1019A000370730F081E0DF91CF911F910F910895BB
:1019B0008B016F5F7F4F0E94581C009759F09983ED
:1019C00088831B830A832C813D81232B59F7FC01DB
:1019D0001082E8CF80E0E7CFEF92FF920F931F9342
:1019E000CF93DF936115710541F480E0DF91CF91D2
:1019F0001F910F91FF90EF90089541155105A9F0A7
:101A00007B01EC010C811D81040F151FB801BCDFA7
:101A1000882359F3288139818C819D81B701820FF8
:101A2000931F0E94531D1D830C8381E0DFCFCF9352
:101A3000DF93EC0188819981009711F00E94CF1B00
:101A4000198218821D821C821B821A82DF91CF911B
:101A50000895CF93DF93EC01FB0101900020E9F79B
:101A60003197AF01461B570BB7DF811102C0CE0182
:101A7000DEDFCE01DF91CF910895CF93DF93EC01AC
:101A8000FB014481558160817181A6DF811102C013
:101A9000CE01CDDFCE01DF91CF910895EF92FF927D
:101AA0000F931F93CF93DF93EC017B018A01BA015F
:101AB0006BDF81110AC0CE01BADFCE01DF91CF9179
:101AC0001F910F91FF90EF9008951D830C83B70134
:101AD000888199810E94531DF0CFEF92FF920F935E
:101AE0001F93CF93DF9300D000D000D0CDB7DEB7E7
:101AF0008C01862FF80111821082138212821582C6
:101B000014824AE09E012F5F3F4F7901B90190E0B6
:101B10000E94AB1AF70101900020E9F73197AF015D
:101B20004E195F09B701C801B9DF29960FB6F894BD
:101B3000DEBF0FBECDBFDF91CF911F910F91FF9000
:101B4000EF900895FB01DC0111961C921E921396F2
:101B50001C921E92129715961C921E92149786172D
:101B6000970741F0608171816115710519F0448119
:101B7000558194CF0895FC0180819181009711F0E7
:101B80000C94CF1B08953F924F925F926F927F9279
:101B90008F929F92AF92BF92CF92DF92EF92FF927D
:101BA0000F931F93CF93DF93CDB7DEB760970FB638
:101BB000F894DEBF0FBECDBF60E080E06FD88090AC
:101BC000190690901A0660E080E068D8C0901B0665
:101BD000D0901C061C821B828BE592E09A8389833D
:101BE00018861E82712C612C68E6462E63E0562E04
:101BF00010E000E070E4372EEBE1EE2EE6E0FE2E82
:101C00006814790408F09BC025E4321609F46BC00F
:101C1000231554F040E43416C9F084E4381609F46E
:101C200052C050E4352EECCF98E4391609F464C064
:101C3000E3E53E1609F447C0F6E43F12F2CF9801FF
:101C40002F5F3F4FF8018491890141C096012F5FBA
:101C50003F4FF6018491882309F471C0843209F062
:101C60006CC05701F2E0AF0EB11CF7018281938185
:101C7000F2E0CF0ED11CF9013490F6E4F31540F0F8
:101C800025E4321658F444E4341651F07501B8CF07
:101C9000E8E43E1679F0F3E53F12F8CF8C01F6CF79
:101CA000BE01665F7F4F0E94EB0175018E01065FEA
:101CB0001F4FA6CF682FCE010196F2DA75018E0173
:101CC0000F5F1F4F9DCFF80180810F5F1F4F88234B
:101CD00009F4A7CFF2018083FFEF6F1A7F0AC201D8
:101CE00001962C018DCF5801FFEFAF1ABF0AC80132
:101CF0000E94D41A8501EBCFF801678181E00E9430
:101D00004E06F801378126819085321305C08091F7
:101D10009806981708F085CFE92FF0E0E65AF94FBA
:101D200080819F5FF80190879F3388F2321779F2A4
:101D30009091990697831086CACF6901CBCF60E056
:101D400080E00E944E0600911B0610911C0629E1BE
:101D5000E22E26E0F22E3BE5C32E32E0D32E412CBC
:101D6000512C32014394C8010196F8012491222399
:101D7000B1F1243291F50E5F1F4FFC01849188343C
:101D800041F5F70164811C821B82DA82C982CE018F
:101D9000019686DA8E818823E1F0E82FF0E093E067
:101DA000F595E7959A95E1F7E556F94F982F9770D5
:101DB000B301A20104C0440F551F661F771F9A95F7
:101DC000D2F79081942B90836FE30E94AF068E83AD
:101DD000E1CF92E0E90EF11CC6CF8C01C4CFF40133
:101DE000E859FC4F10828BE780932802C40160966B
:101DF0000FB6F894DEBF0FBECDBFDF91CF911F911C
:101E00000F91FF90EF90DF90CF90BF90AF909F9099
:101E10008F907F906F905F904F903F9008954F927A
:101E20005F926F927F928F929F92AF92BF92CF926A
:101E3000DF92EF92FF920F931F93CF93DF9300D027
:101E400000D000D0CDB7DEB78E01035E1F4FF80182
:101E5000C190D1908F0160E080E00E944E06C601E3
:101E60000E94731A90931A0680931906D0921C064A
:101E7000C0921B06D8018DE1682E86E0782E9BE586
:101E8000892E92E0992ECE0101965C01C601019641
:101E9000F6012491222309F45FC02432B9F42D0104
:101EA000F2E04F0E511CED90FC9022E0C20ED11CCE
:101EB000FC0184918634B1F158F48434B1F010E01F
:101EC00000E08534A1F110E000E01BC06C01DECF22
:101ED0008834B9F18335B9F7F70101900020E9F7AB
:101EE00031978F010E191F090CC0B501C7010E945F
:101EF000EB01F50101900020E9F731978F010A19F4
:101F00001B09F301E192F1923F0180911906909132
:101F10001A060297080F191F10931A060093190644
:101F2000D201B4CFC7010E94731A8C01EACFC80155
:101F30008E0D9F1D0E94D41A882319F30F5F1F4F27
:101F4000F6CF1C821B829A8289826E2DC501A8D988
:101F5000C5010E94CF06E9CF29960FB6F894DEBFDF
:101F60000FBECDBFDF91CF911F910F91FF90EF90EA
:101F7000DF90CF90BF90AF909F908F907F906F90A9
:101F80005F904F9008951F93CF93DF93CDB7DEB747
:101F90006E970FB6F894DEBF0FBECDBF96D9182F3F
:101FA00066E672E082E697E0A3D960911806CE015A
:101FB000499693DD60911706CE0143968EDD6091C0
:101FC0001606CE010D9689DD60911506CE010196AB
:101FD00084DDBE016F5F7F4FCE010796B3DD6EEEED
:101FE00072E0CE01079635DDBE01635F7F4F45DDB0
:101FF0006EEE72E02EDDBE016D5E7F4F3EDD6EEE59
:1020000072E027DDBE01675E7F4F37DDBC0182E6EF
:1020100097E00E942702CE010796ADDDCE01019622
:10202000AADDCE010D96A7DDCE014396A4DDCE013B
:102030004996A1DDC8D882E697E00E94CF061F929C
:102040001F939F938F938CE792E09F938F9384EEDF
:1020500090E09F938F93E3DE0E94900480930C06A0
:102060000E9466050FB6F894DEBF0FBECDBF843068
:1020700010F40E94C20186E497E08BD86E960FB6EA
:10208000F894DEBF0FBECDBFDF91CF911F910895B1
:102090001F920F920FB60F9211240BB60F922F932F
:1020A0003F934F935F936F937F938F939F93AF93E0
:1020B000BF93EF93FF9382EA96E00E94A802FF91FC
:1020C000EF91BF91AF919F918F917F916F915F91B0
:1020D0004F913F912F910F900BBE0F900FBE0F901D
:1020E0001F9018951F920F920FB60F9211240BB6E6
:1020F0000F922F938F939F93EF93FF93E091B206EC
:10210000F091B3068081E091B806F091B90682FDA6
:102110001DC090818091BB068F5F8F732091BC069C
:10212000821741F0E091BB06F0E0EE55F94F958F34
:102130008093BB06FF91EF919F918F912F910F900C
:102140000BBE0F900FBE0F901F9018958081F2CF9D
:102150001F920F920FB60F9211242F933F938F93DC
:102160009F93AF93BF9380910C0390910D03A09127
:102170000E03B0910F0330910B0323E0230F2D3793
:1021800058F50196A11DB11D20930B0380930C03FC
:1021900090930D03A0930E03B0930F03809110034F
:1021A00090911103A0911203B09113030196A11D08
:1021B000B11D8093100390931103A0931203B09369
:1021C0001303BF91AF919F918F913F912F910F90EA
:1021D0000FBE0F901F90189526E8230F0296A11DA1
:1021E000B11DD2CF1F920F920FB60F9211240BB6D2
:1021F0000F922F933F934F935F936F937F938F93A0
:102200009F93AF93BF93EF93FF93E0913702F091C9
:1022100038021995FF91EF91BF91AF919F918F91E6
:102220007F916F915F914F913F912F910F900BBED6
:102230000F900FBE0F901F9018951F920F920FB620
:102240000F9211240BB60F922F933F934F935F93EE
:102250006F937F938F939F93AF93BF93EF93FF936E
:10226000E0913502F09136021995FF91EF91BF91FF
:10227000AF919F918F917F916F915F914F913F911E
:102280002F910F900BBE0F900FBE0F901F901895BF
:102290001F920F920FB60F9211240BB60F922F932D
:1022A0003F934F935F936F937F938F939F93AF93DE
:1022B000BF93EF93FF93E0912B02F0912C021995BD
:1022C000FF91EF91BF91AF919F918F917F916F910E
:1022D0005F914F913F912F910F900BBE0F900FBECA
:1022E0000F901F9018951F920F920FB60F92112406
:1022F0000BB60F922F933F934F935F936F937F9300
:102300008F939F93AF93BF93EF93FF93E091290235
:10231000F0912A021995FF91EF91BF91AF919F9192
:102320008F917F916F915F914F913F912F910F907E
:102330000BBE0F900FBE0F901F9018951F920F921B
:102340000FB60F9211240BB60F922F933F934F931A
:102350005F936F937F938F939F93AF93BF93EF930D
:10236000FF93E0913302F09134021995FF91EF91C0
:10237000BF91AF919F918F917F916F915F914F919D
:102380003F912F910F900BBE0F900FBE0F901F909B
:1023900018951F920F920FB60F9211240BB60F9241
:1023A0002F933F934F935F936F937F938F939F935D
:1023B000AF93BF93EF93FF93E0913102F09132021C
:1023C0001995FF91EF91BF91AF919F918F917F915F
:1023D0006F915F914F913F912F910F900BBE0F9096
:1023E0000FBE0F901F9018951F920F920FB60F926D
:1023F00011240BB60F922F933F934F935F936F93DC
:102400007F938F939F93AF93BF93EF93FF93E0914D
:102410002F02F09130021995FF91EF91BF91AF918A
:102420009F918F917F916F915F914F913F912F91EC
:102430000F900BBE0F900FBE0F901F9018951F921C
:102440000F920FB60F9211240BB60F922F933F935A
:102450004F935F936F937F938F939F93AF93BF93AC
:10246000EF93FF93E0912D02F0912E021995FF91C9
:10247000EF91BF91AF919F918F917F916F915F91FC
:102480004F913F912F910F900BBE0F900FBE0F9069
:102490001F901895E82FF0E0DF01AA0FBB1FA75D82
:1024A000BD4F11967C936E93883008F04DC08827FD
:1024B000E35AFD4E8F4F0C942B1B85128D12651223
:1024C0006D1275127D1295129D12809169008C7F9C
:1024D000826080936900E89A089580916900837F03
:1024E000886080936900E99A0895809169008F7CE3
:1024F000806280936900EA9A0895809169008F73E1
:10250000806880936900EB9A089580916A008C7FBF
:10251000826080936A00EC9A089580916A00837FBC
:10252000886080936A00ED9A089580916A008F7C9C
:10253000806280936A00EE9A089580916A008F739A
:10254000806880936A00EF9A08951092A506109211
:10255000A40688EE93E0A0E0B0E08093A6069093F6
:10256000A706A093A806B093A90689E492E09093E9
:10257000A3068093A20685EC90E09093AF0680932B
:10258000AE0684EC90E09093B1068093B00680ECA8
:1025900090E09093B3068093B20681EC90E0909324
:1025A000B5068093B40682EC90E09093B7068093D2
:1025B000B60686EC90E09093B9068093B806109228
:1025C000BB061092BC061092BD061092BE0682E0B9
:1025D00090E090936C0780936B0760E00E94F1039A
:1025E00083E090E090936E0780936D0760E00E9417
:1025F000F103109242071092430710924407109281
:102600004507109241071092400710926F071092F1
:102610003F0720916B0730916C072230310509F09C
:1026200047C080916D0790916E07039709F060C0D5
:1026300061E678E080E02EDF6CE678E081E02ADF7A
:1026400010926507109264078BE592E09093630700
:1026500080936207109269071092670788E893E1F8
:1026600090935D0780935C0789ED98E090936107F4
:102670008093600781E090E090935F0780935E070E
:1026800084E597E00E94C90880E197E290934F07A4
:1026900080934E0783EC9FE09093530780935207FB
:1026A000109251071092500786E497E00C94C908E5
:1026B00023303105F9F0C9014297049728F487E1E6
:1026C000821B61E678E0E6DE20916D0730916E07AF
:1026D0002230310589F02330310581F0C90142975C
:1026E000049708F0ADCF87E1821B6CE678E0A7CFB6
:1026F00080E0E7CF81E0E5CF80E0F7CF81E0F5CF64
:10270000CF93DF93CDB7DEB7C054D1090FB6F8949D
:10271000DEBF0FBECDBF789484B5826084BD84B522
:10272000816084BD85B5826085BD85B5816085BDCC
:1027300080916E00816080936E0010928100809184
:10274000810082608093810080918100816080930C
:102750008100809180008160809380008091B10031
:1027600084608093B1008091B00081608093B0005C
:1027700080919100826080939100809191008160AE
:10278000809391008091900081608093900080916F
:10279000A10082608093A1008091A100816080935C
:1027A000A1008091A00081608093A0008091210110
:1027B00082608093210180912101816080932101B9
:1027C0008091200181608093200180917A00846053
:1027D00080937A0080917A00826080937A00809161
:1027E0007A00816080937A0080917A00806880937B
:1027F0007A001092C100E091B206F091B30682E037
:102800008083E091AE06F091AF061082E091B006B1
:10281000F091B1068FEC80831092BA06E091B60673
:10282000F091B70686E08083E091B406F091B5069A
:10283000808180618083E091B406F091B50680814B
:1028400088608083E091B406F091B506808180684D
:102850008083E091B406F091B50680818F7D8083FE
:102860008AE692E00E94D20961E085E00E94F103CD
:1028700061E084E00E94F10361E085E00E9465036D
:1028800061E084E00E946503109205060E94C20187
:1028900060E272E088E193E00E94FA088CEB92E03B
:1028A00090931603809315030CB406FC25C061E0D9
:1028B00085E30E94F10361E085E30E94650361E026
:1028C00083E30E94F10361E084E30E94F10360E08E
:1028D00082E30E94F10361E083E30E94650360E00C
:1028E00083E30E94650360E084E30E94650380E562
:1028F0008CBD8DB581608DBD8AE08093140361E04D
:102900000E94F1030E94BC054FEF60E08FEF0E9430
:102910000D0662E070E080E090E00E9447040E94B3
:10292000C2058DE10E94B70580E00E94B7051EB583
:102930000E94BC05112399F370E060E088E00E94DA
:10294000430670E060E08CE00E9443066FEF7BE09E
:102950008AE00E94430660E07CE084E00E94430637
:102960006FEF71E186E00E94430666E774E084E160
:102970000E94B50761EB88E30E9438066FE370E3BD
:1029800088E20E94430669EF77EF80E30E944306E6
:1029900061E080EC0E94380642E362EC80E80E942D
:1029A0000D0662E17CE086EC0E94430662E184EC65
:1029B0000E9438066CED75E08AEC0E944306609137
:1029C000180384EE0E9438066091190385EE0E9478
:1029D000380660911A0382EE0E94380660911B034C
:1029E00083EE0E94380660911C0380EE0E94380638
:1029F00060911D0381EE0E94380660E071E080E185
:102A00000E94B5078FE10E941E0640EC6BE180E852
:102A10000E940D0644E06FE180E80E940D0682E707
:102A20000E94F006863008F08F5F811104C080E7B5
:102A300092E00E94D20981E08093050680911D03F7
:102A4000282F30E0A4E035952795AA95E1F7E0E03E
:102A5000F2E001900020E9F7E350F24090E32A30E1
:102A60000CF097E3E050FE4F920F9083E0E0F2E02D
:102A700001900020E9F7E250F2408F7090E38A3035
:102A80000CF097E3890FE050FE4F808310921703FC
:102A90000E9477048B01F090170323E0F21681F077
:102AA0000E947704601B710B60367A4E48F40E94D6
:102AB000020782FFF0CF0E9413070E945C0BEBCF4E
:102AC0000E94AB04109203061092020683E0F816EF
:102AD00021F185E992E00E94D2091092050665E194
:102AE00076E0CB010E940B091092030610920206B9
:102AF00081E0809304066EEF75E0CB010E940B0924
:102B000066EF75E0CB010E940B0965E672E081E19A
:102B100096E00E940B090E94AB0465E176E081EA31
:102B200092E00E94E3096EEF75E087EA92E00E946E
:102B3000E30966EF75E08DEA92E00E94E3098BE716
:102B40008093F00588EC8093F10580E18093F20595
:102B50008AE18093F30560EF75E083EB92E00E94D9
:102B6000E3095CE2A52E62E1562E72E0B72E8E01DB
:102B70000F5F1F4FECE78E2EE2E09E2EFAE86F2EDD
:102B8000F2E07F2E0E9413077C01809105068823C6
:102B900019F0C7010E945C0BE114F10409F0A4C212
:102BA00080910406857099F0809102069091030649
:102BB000892B69F40E94020782FF09C08EEF95E01D
:102BC0000E94220A80910406886080930406809106
:102BD00002069091030601969093030680930206E5
:102BE0008091FD05813009F076C08091040681FF57
:102BF00072C0B092FD05809127028F5F80932702FB
:102C0000E090FC05D090FB05F090FA0590E2F99E6B
:102C1000900111248F71F82EF22A80EF95E00E9426
:102C2000070260EF75E0882309F45BC286E293E057
:102C30000E94410948E0C42EC0923E0310923F0317
:102C400049E050E063E772E080E493E043D4A0926F
:102C5000430386E0809349030E945805D0925603AF
:102C6000E09257038BE080935403F0925503E8E51C
:102C7000F3E0DF011D92CA94E9F780912602809368
:102C80005A038D5F8093260280E680936003B092A2
:102C9000610383E0809362031092630310926403E4
:102CA000109265031092660310926703B092680356
:102CB00084E080936903B0926A0386E280936B0399
:102CC00022E040E250E06AE182E30E9405058AE3E7
:102CD00090E00E94770786EF95E00E940702882324
:102CE00079F08091F50581110BC08091F405811177
:102CF00007C086EF95E00E94220A81E08093F405E8
:102D000080EF95E00E940702882379F08091EF051B
:102D100081110BC08091EE05811107C080EF95E015
:102D20000E94220A81E08093EE0580913F0788236C
:102D300009F46DC310923F078091420790914307B9
:102D4000A0914407B091450780930606909307062B
:102D5000A0930806B0930906109242071092430709
:102D600010924407109245071092410710924007B5
:102D700060910606709107068091080690910906F9
:102D800060930D0670930E0680930F0690931006C5
:102D9000611571058105910509F4F3C01CAE1BAEE8
:102DA0001EAE1DAE21961FAE1EAE21972AE0A801D1
:102DB000A3D3F80101900020E9F73197AF01401B40
:102DC000510BB801CE01CB960E944E0D1A8219828A
:102DD0001C821B821E821D8248E050E069EB72E07B
:102DE000C8010E944E0DBE01655C7F4FC8010E9464
:102DF0003D0DBC0182EA96E00E94270263E672E084
:102E000082EA96E00E947809C8010E94BB0D0E94E8
:102E10006509F82E62EC72E082E697E00E9478097C
:102E2000BE01655C7F4FC8010E94A20D68EC72E094
:102E3000C8010E94290DBC0182E697E00E9427028A
:102E4000C8010E94BB0D66E672E082E697E00E9430
:102E5000780960911806C8010E946D0D60911706EF
:102E6000CE0183960E946D0D60911606CE01899663
:102E70000E946D0D60911506CE01C5960E946D0DE4
:102E8000BE016B5C7F4FCE018F960E94A20D6EEE4D
:102E900072E0CE018F960E94290DBE01675D7F4FC3
:102EA0000E943D0D6EEE72E00E94290DBE016D5D27
:102EB0007F4F0E943D0D6EEE72E00E94290DB80119
:102EC0000E943D0DBC0182E697E00E942702CE01E0
:102ED0008F960E94BB0DCE01C5960E94BB0DCE0100
:102EE00089960E94BB0DCE0183960E94BB0DC8013E
:102EF0000E94BB0D0E94E30882E697E00E94CF0685
:102F00001F92FF929F938F939F928F927F926F92C7
:102F10000E940F0F0E94900480930C060E94660589
:102F20000FB6F894DEBF0FBECDBF843010F40E9400
:102F3000C201CE01CB960E94BB0DC0900D06D09071
:102F40000E06E0900F06F09010062AE0B701A601E9
:102F5000F7FE0DC06DE282EA96E00E94CA024427A5
:102F60005527BA014C195D096E097F092AE082EAEA
:102F700096E00E94870963E672E082EA96E00E948A
:102F8000780990910C068091280270E060E0981317
:102F900007C08BE78093280260910A0670910B06A8
:102FA0001CA21BA21EA21DA218A61FA261157105BC
:102FB00061F0FB0101900020E9F73197AF01461B5A
:102FC000570BCE0183960E944E0D8FA198A5892B99
:102FD00009F478C0EBA1FCA18081882309F472C0B8
:102FE00097E0E92E93E0F92EF7016491662349F00A
:102FF00082EA96E00E94CA02FFEFEF1AFF0A892BCD
:1030000099F763E672E082EA96E00E947809BE01D1
:103010006D5D7F4F82EA96E00E9427021A82198234
:103020001C821B821E821D8245E050E06AEC72E029
:10303000C8010E944E0DB801CE0183960E94A40CD7
:10304000F82EC8010E94BB0DF1103CC01A821982F3
:103050001C821B821E821D8242E050E060ED72E005
:10306000C8010E944E0DB801CE0183960E94A40CA7
:10307000F82EC8010E94BB0DFF2009F4CCC183EDDE
:1030800092E00E94D20983E0E82EF12C60E085E016
:103090000E94650364E670E080E090E00E944704CF
:1030A00061E085E00E94650364E670E080E090E006
:1030B0000E94470421E0E21AF10841F790E080E025
:1030C0000E94D908CE0183960E94BB0D84E597E04B
:1030D0000E94A00886E497E00E94A0080E943503A1
:1030E00051CD8CE293E0A4CDB9E2EB16F10408F4E3
:1030F0001CCE80913E03883009F017CE80913F03AB
:10310000863009F0A1C144E050E065E176E088E551
:1031100093E0AAD4892B09F008CE8091470381302F
:1031200021F588E393E00E94020910924603B092D1
:10313000470368E473E082E593E00E94FA0868E1DF
:1031400073E088E493E00E94FA086EE473E088E597
:1031500093E00E940B0965E176E08EE493E00E9423
:103160000B098AE290E00E9477078091040683FFB2
:103170000EC0F0904703E2E0FE1209C06CE273E07B
:103180008EEF95E00E940C0A8111F0920406809166
:10319000F505811111C08091F405882369F066E27C
:1031A00073E086EF95E00E940C0A882329F081E005
:1031B0008093F5051092F4058091EF058111B5CD4E
:1031C0008091EE05882309F4B0CD66E273E080EFCC
:1031D00095E00E940C0A882309F4A7CD81E0809332
:1031E000EF051092EE05A1CDF6E3EF16F10408F419
:1031F0009CCD863009F099CD809156038B3009F033
:10320000B8C044E050E060EF75E08CE493E02CD46B
:10321000892B09F08ACD4090610342FE15C0E091F0
:103220002403F0912503309759F08091570330E043
:1032300020E050E040E063E0829586958770199524
:1032400085E08093FD0571CD0E94BF046C018091E3
:10325000FD05823009F045C0842D8071942D927156
:10326000923189F560E090E080E00E94210988E1D8
:1032700080936103E0912203F0912303F12CE12C70
:10328000309739F08091550382958695877019950E
:103290007C0183E08093FD05C701889690934203EB
:1032A000809343030E9458051092640310926503B3
:1032B000A701445E5F4F22E06AE182E30E940505B8
:1032C000C701C69604C191E09093FD05811106C027
:1032D000C601019664E00E94210927CD90E080E0BC
:1032E000F9CF8330A1F5C114D104A1F1E0912403F9
:1032F000F0912503309771F18091600390E024E014
:10330000959587952A95E1F7880F991F880F991F42
:103310008296A701485051098417950708F4AC011B
:10332000C601840F951F9701241B350BE816F9067B
:1033300008F096018091570360E08295869587702A
:10334000199569E0C6010E94210986E07ACF85308F
:1033500009F4EBCC40FE07C0833009F4E6CC69E009
:10336000C6010196F0CF60E0C601CD2809F4DDCC9E
:10337000B2CF8111DACC80915703803509F0D5CCDA
:10338000F0906103F1FE36C010924203A092430315
:103390000E9413095092610360E081E090E00E9476
:1033A000DA041092580310925903809126028093F8
:1033B0005A0310925B038D5F80932602B0926803DC
:1033C00084E08093690385E080936A0310926B0325
:1033D00090E6909360038093620388E78093630391
:1033E00022E040E250E06AE182E30E9405058AE3C0
:1033F00090E06DC0F4FE99CC0E94BF04892B09F0C7
:1034000094CCF0FE92CC60E090E080E064CF60E08D
:1034100070E0CB01B5CC8BED92E00E94D20960E068
:1034200085E00E94650368EE73E080E090E00E9412
:10343000470461E085E00E94650364E670E080E097
:1034400090E00E9447043ECE39E2E316F10409F40D
:103450006CCC81116ACC80914003853409F065CC35
:1034600044E050E065E176E080E593E0FDD2892B11
:1034700099F044E050E06EE173E080E593E0F4D22F
:10348000892B51F044E050E06FE372E080E593E077
:10349000EBD2892B09F049CC80914903813009F0A6
:1034A000A3CE80915403883009F03FCC0E941309C9
:1034B0001092540380915603883F28F0909157034F
:1034C0009F5F90935703885F80935603C7010E94C4
:1034D00077072BCCFB01DC0102C005900D92415017
:1034E0005040D8F70895FC0105900020E9F7809539
:1034F00090958E0F9F1F0895BB272A3051F4992372
:1035000042F4BDE290958095709561957F4F8F4F05
:103510009F4F01C0BB27FA01A62F621771058105D5
:103520009105330B30FB66F0AA27660F771F881FC3
:10353000991FAA1FA21710F0A21B63953850A9F774
:10354000A05DAA3308F0A95DA19336F7B111B1933C
:103550001082CA0119C0BB27FB015527AA27880F73
:10356000991FAA1FA41710F0A41B83955051B9F7F7
:10357000A05DAA3308F0A95DA193009779F7B11176
:10358000B1931192CB0100C0DC01FC01672F719156
:103590007723E1F7329704C07C916D937083629139
:1035A000AE17BF07C8F30895F999FECF92BD81BD4C
:1035B000F89A992780B5089509D0A59F900DB49FDA
:1035C000900DA49F800D911D11240895A29FB0011C
:1035D000B39FC001A39F700D811D1124911DB29F47
:1035E000700D811D1124911D0895AA1BBB1B51E173
:1035F00007C0AA1FBB1FA617B70710F0A61BB70B63
:10360000881F991F5A95A9F780959095BC01CD0107
:103610000895A1E21A2EAA1BBB1BFD010DC0AA1F13
:10362000BB1FEE1FFF1FA217B307E407F50720F02B
:10363000A21BB30BE40BF50B661F771F881F991FA6
:103640001A9469F760957095809590959B01AC01EF
:10365000BD01CF010895EE0FFF1F881F8BBF07909C
:10366000F691E02D19940F931F93CF93DF9382303F
:10367000910510F482E090E0E0917207F0917307F9
:1036800030E020E0B0E0A0E0309799F4211531055A
:1036900009F44AC0281B390B24303105D8F58A813A
:1036A0009B816115710589F1FB0193838283FE0182
:1036B00011C0408151810281138148175907E0F000
:1036C0004817590799F4109761F012960C931297C6
:1036D00013961C933296CF01DF91CF911F910F91DA
:1036E00008950093720710937307F4CF21153105E5
:1036F00051F04217530738F0A901DB019A01BD01CF
:10370000DF01F801C1CFEF01F9CF909373078093E8
:103710007207CDCFFE01E20FF31F819391932250E8
:10372000310939832883D7CF2091700730917107F1
:10373000232B41F420913B0230913C0230937107DE
:10374000209370072091390230913A0221153105FA
:1037500041F42DB73EB740913D0250913E02241BEB
:10376000350BE0917007F0917107E217F307A0F4B1
:103770002E1B3F0B2817390778F0AC014E5F5F4FC7
:103780002417350748F04E0F5F1F50937107409381
:103790007007819391939FCFF0E0E0E09CCFCF93AF
:1037A000DF930097E9F0FC01329713821282A09117
:1037B0007207B0917307ED0130E020E01097A1F49B
:1037C00020813181820F931F209170073091710702
:1037D0002817390709F061C0F0937107E09370076B
:1037E000DF91CF910895EA01CE17DF07E8F54A810E
:1037F0005B819E0141155105B1F7E901FB83EA8325
:1038000049915991C40FD51FEC17FD0761F48081D0
:1038100091810296840F951FE901998388838281A3
:1038200093819B838A83F0E0E0E012968D919C91D6
:1038300013970097B9F52D913C911197CD01029600
:10384000820F931F20917007309171072817390755
:1038500039F6309751F51092730710927207B093B2
:103860007107A0937007BCCFD383C283408151817D
:10387000840F951FC817D90761F44E5F5F4F888189
:103880009981480F591F518340838A819B8193837B
:1038900082832115310509F0B0CFF0937307E093CF
:1038A00072079ECFFD01DC01C0CF13821282D7CFF9
:1038B0004F925F926F927F928F929F92AF92BF9240
:1038C000CF92DF92EF92FF920F931F93CF93DF93EC
:1038D0008C01009791F4CB01DF91CF911F910F9153
:1038E000FF90EF90DF90CF90BF90AF909F908F9020
:1038F0007F906F905F904F90B6CEFC01E60FF71F60
:103900009C0122503109E217F30708F4AAC0D9013B
:10391000CD91DC911197C617D70718F1C530D105A5
:1039200070F0CE0104978617970748F0C61BD70B97
:103930002297C193D1936D937C93CF0130DFC8015F
:10394000DF91CF911F910F91FF90EF90DF90CF907B
:10395000BF90AF909F908F907F906F905F904F90AF
:1039600008955B01AC1ABD0A4C018C0E9D1EA091FE
:103970007207B0917307512C412CF12CE12C109758
:1039800031F580917007909171078815990509F0BC
:103990005CC04616570608F058C0809139029091D5
:1039A0003A02009741F48DB79EB740913D02509185
:1039B0003E02841B950BE817F90708F052C0F093FC
:1039C0007107E0937007F90171836083B8CF8D911F
:1039D0009C91119712966C90129713967C90139766
:1039E000A815B90559F56C0142E0C40ED11CCA14E2
:1039F000DB0420F1AC014A195B09DA011296159734
:103A000080F06282738251834083D9016D937C93ED
:103A1000E114F10471F0D7011396FC93EE93129721
:103A20008ECF22968C0F9D1FF90191838083F30125
:103A3000EFCFF0937307E093720781CF48165906D2
:103A400008F42C017D01D3019ACFCB010CDE7C015F
:103A5000009739F0AE01B80114D0C801A0DE87018B
:103A60006ECF10E000E06BCFFB01DC0104C08D9154
:103A70000190801921F441505040C8F7881B990BE0
:103A80000895FB01DC0102C001900D9241505040AD
:103A9000D8F70895FB01DC018D9101908019011088
:103AA000D9F3990B0895FB01DC0101900D920020E0
:083AB000E1F70895F894FFCF3F
:103AB80041726475696E6F2D454E4332386A3630EF
:103AC8002D30300000000000000000000000000061
:103AD8007469692D30310A017B830483048304836C
:103AE800048304830483048304000074078000FFB4
:103AF800FFFFFFFFFF00000000CA02350262021646
:103B0800039302710285020000000077083502E085
:103B180008DF080D0A0069703D005265616479008C
:103B28004661696C656420746F20616363657373B3
:103B38002045746865726E657420636F6E74726F69
:103B48006C6C65720044484350206661696C65641A
:103B58000049503A20200047573A202000444E534D
:103B68003A20005352563A200053656E64696E67D6
:103B78002000636172643D002600484245415400BC
:103B88004F4B005061737365642E00566572696609
:103B980069636174696F6E206661696C65642E0083
:00000001FF
